S013000070726F6A656374496F545F322E7333374D
S214012000C00A0020D13F0100713A0300713A030073
S214012010C94F0300713A0300713A0300713A030095
S214012020713A0300713A0300713A0300713A0300F2
S214012030713A03004CFC0300D5510300713A0300CA
S214012040713A0300713A0300713A0300713A0300D2
S214012050713A0300713A0300713A0300713A0300C2
S214012060713A0300713A03005D9201000D2C0100E4
S2140120702D310100713A0300713A0300713A0300F1
S214012080713A0300713A0300713A0300713A030092
S214012090713A030095470100713A0300713A030053
S2140120A0713A0300713A0300713A0300713A030072
S2140120B0713A0300713A0300713A030055140300A4
S2140120C043DF03003FDF0300E90B03004FDF03009C
S2140120D047DF0300191403004BDF03004DF1020034
S2140120E095140300713A0300713A0300713A030034
S2140120F0713A0300713A0300713A0300713A030022
S214012100713A0300713A0300713A0300713A030011
S214012110713A0300713A0300713A0300713A030001
S214012120713A0300713A0300713A0300713A0300F1
S208012130713A0300F7
S214012134F0B5114A114C124E00F00105E3695F0730
S21401214413D40DB9334213D103EA00078F4207D1E2
S2140121540B4A1A40002A0CBF00206FF00100F0BDA4
S214012164013AEBD16FF00200F9E74FF0FF30F6E7E2
S2140121746FF00100F3E700BF80969800000003505B
S214012184020001000B4B70B5D96911F480310DD1F1
S21401219401244FF48072084E084DF46020462C64E6
S2140121A41A61FFF7C5FF3464EC6070BD6FF001007F
S2140121B4FBE700BF0000035000100350002003504B
S2140121C438B541F6713301220C4C0021E569E3630D
S2140121D40B4B05F48035DA6002236061212023610C
S2140121E4FFF7A6FF10B92120FFF7A2FF0122054B36
S2140121F4DA600DB10023E36338BD00BF000003506D
S214012204001003500020035070B5134C6061E3695D
S2140122145B071ED40E4656F8043B8D18A361AE42E6
S2140122240BD10423002121202361FFF781FF58B934
S214012234BDE870402120FFF77BBF08210846FFF761
S21401224477FF10B10423236170BD56F8043BA361E4
S214012254E5E74FF0FF30F7E7000003502DE9F843B8
S214012264154641F67132164B8946DF69DA63012257
S214012274064603F58053DFF8508007F48037DA60AA
S21401228455B9284601220F4BDA601FB10022A3F587
S2140122940053DA63BDE8F88306F5005404EA08043B
S2140122A4A41BAC4228BF2C46494622463046FFF7BB
S2140122B4ABFF0028E6D12644A1442D1BE0E700BF6E
S2140122C4000003500020035000E0FFFF0000000060
S2140122E0013800D0FCE7704773B5374E05463078A5
S2140122F011F0F8F8044610B3344D3549286822F039
S214012300F3FB3449286822F0EFFB21F04EFB21F065
S2140123104DFB314B314A00933149F623286822F0B0
S214012320E3FB30492346304A286822F0DDFB20468D
S21401233001F0D4FC2D49286822F0D6FBFEE72C4B91
S21401234028465D611FF050FB1DA3D3E900231FF053
S214012350CFF81FF0B3FB00940246014623463078BF
S21401236011F08AF8054618B3184C1949206822F06E
S214012370BBFB1849206822F0B7FB21F016FB21F0C1
S21401238015FB154B154A0093154940F201132068B9
S21401239022F0AAFB13492B46134A206822F0A4FB1D
S2140123A0284601F09BFC1149206822F09DFBFEE7C0
S2140123B03178104802B0BDE8704000F0C3BE00BFDF
S2140123C09A9999999999F93F4E3300201C0F00204C
S2140123D005F1030028F0030018F103002DF00300B7
S2140123E036F0030045F0030042F003005AF0030004
S2140123F0003100201B260020002370B5404C054606
S2140124008AB0E36318B1008823600DF0CFF93D4828
S2140124102BF0CDF83C4E3D4B304633603C4B736061
S21401242026F0C2FC0021304618F00AFB32A3D3E99D
S2140124300023A062C4E9062326F0C1FCD4E90623E2
S21401244019431043C4E90601CDE900014FF0FF33FB
S2140124504FF0FF32A06A2BF0FEF802224FF0FF3158
S214012460A06A2BF0FDF801200CF0FCFD4FF4007380
S21401247000222849A06A2BF044F9B0F5007F38D134
S21401248000239422CDE9073309933C23CDE9033297
S21401249005939623A06A03A9069318F0B9FB35B3F2
S2140124A0287C0DF023FA0546F0B9A06A2BF005FA50
S2140124B00DF0CAF90CF0B8FD20B14FF48070002180
S2140124C009F040FE0CF0C0FD20B14FF40060002181
S2140124D009F038FE26F099FD012018F007FB0E4A98
S2140124E00E49A06A26F05EFC28460AB070BDFF20A1
S2140124F0D7E70725F8E700BF0DD5015520000000F6
S214012500300B0020690345EC001E0020E9EE0100B7
S214012510101E0020001C00204D8D03008D8D030031
S2140125200348044B834202D0034B03B1184770475C
S214012530783300207833002000000000064B07495E
S214012540C91A891048BF0131491003D0044B0BB199
S21401255001481847704700BF7833002078330020C1
S2140125600000000010B5064C237843B9FFF7D8FFEA
S214012570044B13B10448AFF300800123237010BD50
S2140125801A260020000000002C2C040008B5054B7C
S2140125901BB105490548AFF30080BDE80840FFF7C9
S2140125A0CDBF00BF00000000980D00202C2C0400B9
S2140125B0A3F5803A704700BF174B002B08BF134B9B
S2140125C09D46FFF7F5FF00218B460F461348144A38
S2140125D0121A2BF05DFD0E4B002B00D098470D4BC9
S2140125E0002B00D098470020002104000D000D4864
S2140125F0002802D00C48AFF300801FF0FDFD20003C
S214012600290000F027FB1FF009FC00BF00000800AE
S2140126100000000000000000C00A0020C00A0020E0
S214012620602F00200000000000000000064B5A68E2
S214012630092ADEBF0A214A435A60DA68092ADEBF40
S2140126400A214A43DA6070470031002038B5194C38
S214012650204600F089FE2046FFF7E8FF00F0FCFE6A
S214012660D4E90035D4E902040A2193FBF1F201FB17
S21401267012331B0643EA027394FBF1F201FB124488
S214012680234395FBF1F401FB145543EA045390FBF5
S214012690F1F401FB140043EA054343EA043343EA39
S2140126A0002343EA0212044B04481978BDE8384077
S2140126B000F0AEBD003100204E3300201B26002066
S2140126C0012337B54FF47A710093164A0023164852
S2140126D001F060FB054610B3144C1549206822F042
S2140126E003FA1449206822F0FFF921F05EF921F07F
S2140126F05DF9114B114A009311497C23206822F0A1
S214012700F3F910492B46104A206822F0EDF92846C5
S21401271001F0E4FA0D49206822F0E6F9FEE703B07D
S21401272030BD00BF4D260100B00D00201C0F00205B
S21401273005F1030028F0030037F103002DF0030034
S21401274036F0030045F0030042F003005AF00300A0
S21401275070B50368A24A23F47F4323F0070393422C
S21401276088B005D09F4A934200F0E58008B070BD5E
S2140127700DF10F0104A810F045FF9B4C054608B368
S2140127809A49206822F0B0F99949206822F0ACF9FC
S21401279021F00BF921F00AF9964B974A00939749D5
S2140127A0A323206822F0A0F995492B46954A206874
S2140127B022F09AF9284601F091FA9349206822F00E
S2140127C093F9FEE7BDF8143001465BBAADF8183050
S2140127D09DF8133008228DF81A30FF238DF81B3030
S2140127E0FE238DF81C309DF8123018208DF81D3010
S2140127F0BDF810305BBAADF81E3006AB10F0D4FE53
S214012800054608B37949206822F06EF978492068B0
S21401281022F06AF921F0C9F821F0C8F8754B764A1A
S21401282000937649B323206822F05EF974492B465B
S214012830744A206822F058F9284601F04FFA724986
S214012840206822F051F9FEE7704E304610F0FCFD8C
S214012850054608B36549206822F046F964492068B0
S21401286022F042F921F0A1F821F0A0F8614B624A6A
S21401287000936249B823206822F036F960492B4656
S214012880604A206822F030F9284601F027FA5E49AE
S214012890206822F029F9FEE74FF4C862009003464B
S2140128A01146307810F0E8FD054608B34F49206818
S2140128B022F01AF94E49206822F016F921F075F82F
S2140128C021F074F84B4B4C4A00934C49C1232068C5
S2140128D022F00AF94A492B464A4A206822F004F9AE
S2140128E0284601F0FBF94849206822F0FDF8FEE78A
S2140128F00721307810F0E2FD454B40F2FF220093AD
S214012900444B06211B68444820F050FE21F04DF848
S21401291021F04CF84149206822F0E6F831783E482B
S21401292000F010FC21F041F821F040F83C49206805
S21401293022F0DAF81AE7354C0221207810F0FAFD79
S214012940054610B3284C2949206822F0CDF82849BD
S214012950206822F0C9F821F028F821F027F8254B45
S214012960254A00932549DC23206822F0BDF8244936
S2140129702B46244A206822F0B7F8284601F0AEF923
S2140129802149206822F0B0F8FEE70221207810F0F5
S214012990E5FD054600283FF4E9AE134C13492068CF
S2140129A022F0A2F81249206822F09EF820F0FDFFDE
S2140129B020F0FCFF0F4B104A00931049E1232068DA
S2140129C022F092F80E492B460E4A206822F08CF827
S2140129D0284601F083F90C49206822F085F8FEE7C5
S2140129E0A0000100A00006011C0F002005F1030055
S2140129F028F0030028F103002DF0030036F0030051
S214012A0045F0030042F003005AF003004E33002065
S214012A106BF003001C3100201B26002072F003001F
S214012A208EF0030037B505462D4801F095F90446AA
S214012A3018B32C4D2C49286822F056F82B492868E3
S214012A4022F052F820F0B1FF20F0B0FF284B294ABF
S214012A500093294940F20B13286822F045F82749CC
S214012A602346274A286822F03FF8204601F036F927
S214012A702449286822F038F8FEE7234B29461D61D1
S214012A800123224A00930346154801F083F90546BF
S214012A9018B3144C1449206822F026F8134920680C
S214012AA022F022F820F081FF20F080FF104B114A1F
S214012AB0009311494FF48A73206822F015F80F49E4
S214012AC02B460F4A206822F00FF8284601F006F937
S214012AD00C49206822F008F8FEE703B030BD00BFBD
S214012AE0B00D00201C0F002005F1030028F00300A4
S214012AF007F103002DF0030036F0030045F0030054
S214012B0042F003005AF00300003100204D26010078
S214012B1038B51E4D1E4C20F048FF20F047FF1D49DA
S214012B20286821F0E1FF20F040FF20F03FFFD4E9C4
S214012B3000231949286821F0D7FF20F036FF20F03E
S214012B4035FFD4E902231549286821F0CDFF20F08E
S214012B502CFF20F02BFF22691149286821F0C4FFC1
S214012B6020F023FF20F022FF62690E49286821F039
S214012B70BBFF20F01AFF20F019FFA2692868531C3A
S214012B80A3610949BDE8384021F0AEBF1C0F002003
S214012B9000310020A4F00300AEF00300BFF00300F4
S214012BA0D0F00300E4F00300F7F0030030B5144D55
S214012BB089B001AC0FCD0FC495E8070084E8070083
S214012BC0104C01A9204602F063FE4FF4A0220E4BE2
S214012BD00B20C3F8C4254FF4C022C3F8BC25142229
S214012BE0C3F8AC25042204F500539A64E36C13433E
S214012BF0E36404F063FC0B2004F052FC09B030BD22
S214012C0040F103000080055000C003500C4B0D49F5
S214012C105A6A10B5D2B20D2A0B680B4808D0082B99
S214012C2006D85C1C0C60C2540422084B9A6410BD82
S214012C300022C2540A600122054B1A70F4E700BF55
S214012C4000800550F00D00203926002000A0055018
S214012C5038260020F8B5002422F097FAFFF730FD59
S214012C6000F0CCFB20F0D7FBFFF7A0FF20F0E8FB3D
S214012C70284AD36C43F00403D36422F093FA20F07D
S214012C80C9FB254B1A783AB30027244D1C702846F9
S214012C902BF029FA2E4639464FF0010C4FF00A0E5A
S214012CA01F4B204A18602B78303B13601E4A146075
S214012CB0604514DC07B11160022B19D0032B1FD01D
S214012CC0012B09D10421194B1068C3F8A010FFF796
S214012CD0A9FE34607460348105F08CFCCDE715F8EC
S214012CE0017F0CF1010C303F0EFB01710127DFE77C
S214012CF008210E4B1068C3F8A010FFF7F5FAE8E7B5
S214012D0004220A4BC3F8A0200822C3F8A020FFF72C
S214012D10FFFEE1E700800550382600203926002016
S214012D20E80D002020310020EC0D002000F00350BB
S214012D3030B503687C4A23F47F4323F007039342AC
S214012D4089B040F0EE80082200211220774B10F067
S214012D502BFC044610B3764D7649286821F0C4FE54
S214012D607549286821F0C0FE20F01FFE20F01EFEE7
S214012D70724B734A009373495C23286821F0B4FEB2
S214012D8071492346714A286821F0AEFE204600F0BC
S214012D90A5FF6F49286821F0A7FEFEE7014603223A
S214012DA014206C4B10F000FC044610B3604D6149D2
S214012DB0286821F099FE6049286821F095FE20F0E8
S214012DC0F4FD20F0F3FD5D4B5D4A00935D496A23F7
S214012DD0286821F089FE5C4923465C4A286821F070
S214012DE083FE204600F07AFF5949286821F07CFED0
S214012DF0FEE7014605221620574B10F0D5FB054687
S214012E0010B34B4C4B49206821F06EFE4A492068AE
S214012E1021F06AFE20F0C9FD20F0C8FD474B484A64
S214012E20009348497823206821F05EFE46492B46E8
S214012E30464A206821F058FE284600F04FFF4449D4
S214012E40206821F051FEFEE70DF10F0104A810F0F5
S214012E50D9FB044610B3364D3649286821F044FEA6
S214012E603549286821F040FE20F09FFD20F09EFDA8
S214012E70324B334A009333498323286821F034FECA
S214012E8031492346314A286821F02EFE204600F0BB
S214012E9025FF2F49286821F027FEFEE7BDF81430EC
S214012EA001465BBAADF818309DF8133008228DF84C
S214012EB01A30FF238DF81B30FE238DF81C309DF849
S214012EC0123018208DF81D30BDF810305BBAADF801
S214012ED01E3006AB10F068FB054610B3144C1549BE
S214012EE0206821F001FE1449206821F0FDFD20F044
S214012EF05CFD20F05BFD114B114A009311499323B1
S214012F00206821F0F1FD10492B46104A206821F077
S214012F10EBFD284600F0E2FE0D49206821F0E4FDB5
S214012F20FEE709B030BD00BFA00001005CF1030060
S214012F301C0F002005F1030028F0030097F10300A1
S214012F4065F1030036F0030045F0030042F003008C
S214012F505AF003008DF1030091F1030007B501A8B3
S214012F6002F0E6FB9DF80530012B27D1214A936D2F
S214012F70DB0313D4536B23F4FF0323F4FE4343F420
S214012F80BC1343F4A0635363136B23F4704343F4FD
S214012F9040431363136B43F4E06313639DF80430FB
S214012FA063B94FF000531B68134B1B68134B1B6828
S214012FB0134B1B68134B1B68134B1B68134AD2F841
S214012FC0803043F00303C2F8803004F027FA00F0A3
S214012FD0D7FF21F03CFD21F0ACFC04F0FBFC00F037
S214012FE0C5FF01F009F901F00FFC03B05DF804EB31
S214012FF005F024BA00C000500040002000800020E8
S21401300000C0002000000120004001200080005088
S21401301030B5204D95B00DAC0FCD0FC495E8070027
S214013020032384E8070001248DF84D301A4A1B4B10
S2140130300021CDE903231A4B0E220DF12600CDE91E
S21401304005342BF025F84FF48021164B0DAACDE957
S21401305007130B238DF824300C238DF82530124BE3
S21401306007A90A9320230B93104B1148009303AB37
S2140130708DF8314004F0F0FB04469DF832304FF4F1
S214013080E130002B0CBF0321002120F0E2FC20469A
S21401309015B030BDF0F30300008005502100050097
S2140130A0060004022480055043260020F40D00206B
S2140130B0440E0020831E012B10B512D8012922D8F8
S2140130C0114B04221B6905210020C3F3401302F0B3
S2140130D0B3F90E4B1B681868A8B1BDE81040436AE7
S2140130E018478B1E012B0CD801280CD8BDE81040C0
S2140130F00022054B05211B691046C3F3401302F05D
S2140131009BB90129E5D910BD00C003502431002028
S21401311008B50449044805F04BFABDE80840FFF736
S21401312077BF00BF28310020680E0020014821F03B
S21401313072BE00BF440E0020014B1A6A1868104781
S214013140440E002037B50C460346027F0021204678
S21401315010F0DAF90546F8B1234C2449206821F02D
S214013160C3FC2349206821F0BFFC20F01EFC20F0A0
S2140131701DFC204B204A009320494223206821F061
S214013180B3FC1F4A1F49206821F0AEFC2A461E499F
S214013190206821F0A9FCFEE70221204610F0DEF9A6
S2140131A00546F8B1104C1149206821F09DFC1049E4
S2140131B0206821F099FC20F0F8FB20F0F7FB0D4B7E
S2140131C00D4A00930D494823206821F08DFC0C4AD6
S2140131D00C49206821F088FC2A460C49206821F019
S2140131E083FCFEE703B030BD1C0F002005F1030091
S2140131F028F00300B0F403000CF4030036F00300DB
S21401320020F4030033F403004BF4030077F40300C7
S214013210034637B50846110A9A725972110C120EF6
S2140132201972DA7100211A7F10F06EF90546F8B1AD
S214013230104C1149206821F057FC1049206821F0F4
S21401324053FC20F0B2FB20F0B1FB0D4B0D4A00936E
S2140132500D495A23206821F047FC0C4A0C49206886
S21401326021F042FC2A460B49206821F03DFCFEE78E
S21401327003B030BD1C0F002005F1030028F0030049
S214013280A0F403000CF4030036F0030020F403005E
S21401329033F403004BF40300002370B501250D4CF5
S2140132A019460422012002F0C7F804F500531D64F4
S2140132B044F2506004F5805406F00EF8142025649C
S2140132C006F00AF82B462846BDE870400322002186
S2140132D002F0B2B800C0035010B50E4C282005F01D
S2140132E0FBFF636CD9070FD4502005F0F5FF636C24
S2140132F013F0010F0CBFFF20012040F2E93305490E
S2140133004A6CD20702D410BD0020F6E7013BF7D184
S214013310FF20F8E700C00350F8B507250024012771
S214013320104E40F2E93301E0013B19D0726CD00730
S214013330FAD5282005F0D0FF726C07FA05F3D107FD
S2140133404CBF1C439C4340F2E93348BFE4B2726C65
S214013350D20703D4013DE4D22046F8BD013BF6D1A5
S214013360FF24F9E700C003502DE9F0410446FFF7BA
S21401337093FFFFF7B1FF1B4B0128187030D1FFF701
S214013380CBFF194FFF2838702AD0FFF7C5FF174E1D
S214013390FF28307024D0FFF7BFFF154DFF28287097
S2140133A01ED0FFF7B9FFDFF85080FF2888F800002D
S2140133B016D0FFF7B1FF0F4BFF28188010D03278D8
S2140133C039782E788B1898F8005033442B4498425D
S2140133D006D1A369C4E90065C4E902120133A361F9
S2140133E0BDE8F081632600206726002066260020BF
S2140133F065260020BC2500206426002030B5134C2D
S21401340085B020F0E8FA002000F072F9204600F0BE
S214013410D7F900256FF07F432046C4E9013520F037
S21401342001F920460A4920F061FA0523012200939A
S214013430CDE9013220462B462A46064920F069FA94
S21401344005B0BDE8304000F07BB900BF700E00202B
S21401345014F50300BAF40300F0B504464368C7B098
S2140134600093036832212F4A05A81EF041FEE36847
S21401347032210093A3682C4A12A81EF039FE236954
S21401348032212A4A1FA81EF033FE63693221284AD8
S2140134902CA8012700261EF02BFEA3690524254D26
S2140134A03221254A39A81EF023FE284620F0BAF814
S2140134B03B4632462846CDE901472049009620F092
S2140134C028FA334605A902222846CDE90147009489
S2140134D020F01FFA334612A903222846CDE90147F8
S2140134E0009420F016FA33461FA904222846CDE997
S2140134F00147009420F00DFA334622462CA92846AF
S214013500CDE90147009420F004FA3346062239A992
S2140135102846CDE90147009420F0FBF900F010F9A8
S21401352047B0F0BDC6F40300D5F40300E5F403008C
S214013530F7F40300700E002008F503006BF003009B
S2140135400123054A411100F01F00834052F8210073
S214013550034342F8213070479C0E0020044B1B6841
S2140135601BB1044B0360002070470120704700BF69
S214013570AC0E0020BE25002070B50D4C246884B129
S2140135800C4C85182688B5420DDC6688CD18B542E8
S21401359009DC52B14BB1A0800020E1802281638119
S2140135A070BD0120FCE70420FAE70520F8E700BF1C
S2140135B0AC0E0020BE2500202DE9F74F9946494B59
S2140135C01B68002B00F08A80B9F1000718BF01279D
S2140135D04FF0010BDFF814A17F42BAF80650BAF893
S2140135E00A300D9E2B449BB20D440093FFB2ADB240
S2140135F01EB9304603B0BDE8F08F009AABB29A42CE
S2140136006ED9BAF80840BAF80430241AB44228BF72
S21401361034461844344B361B80B203EB0512B9F11D
S214013620000F0AD0072C26D80444A04216D32846F9
S214013630FFF786FF01350020DAE7072C1BD8044484
S214013640A042F4D2C108535C00F0070C0BFA0CFC44
S21401365023EA0C030130535480B2F1E7C10812F893
S21401366001C000F007030BFA03F343EA0C03013031
S214013670535480B2D9E74FEAD00C02EBD00810F0D1
S21401368007000BD1E2083946404601922AF000FDB8
S21401369014F00704019ACAD0904412E00BFA00F322
S2140136A012F80CE0DBB2591E5B420EEA01013B4008
S2140136B008381943044402F80C10E20808F101081E
S2140136C0E1D10BFA04F498F80030E4B26242013C0E
S2140136D013403C40234388F80030A8E7012688E7DA
S2140136E0042686E7AC0E002068260020BE250020B2
S2140136F037B5114D2B68EBB900F03AF9044610B115
S214013700012003B030BD00F027F928600028F7D06B
S21401371002884188094B20461A801A814A435980FB
S21401372059819C80DC802146CDE900422346224611
S214013730FFF742FF0020E4E7AC0E0020BE25002084
S2140137402DE9F843002301251A461A4FDFF86C804D
S2140137503C68DFF86490D8F80000D61841888E429D
S21401376007D3FBB91022002112482AF091FC002051
S21401377012E0E10708D50133D118C9060ABF57F888
S214013780254064080135E6E753B109EB021100F064
S214013790B1F8034610B10720BDE8F883721CEBE7C9
S2140137A00132E9E7044901EB021100F0A3F8002811
S2140137B0D8D0F0E79C0E002068260020AC0E002032
S2140137C030B5054687B000B300226FF07F43C0E9ED
S2140137D0012301A8FFF7C2FE044698B9019BCDE973
S2140137E002001A882B605B88013A013B284602A931
S2140137F0049205931FF041FF044618B92846044970
S21401380020F074F8204607B030BD0524FAE700BF63
S21401381044F803000122014B1A61704700F003507F
S21401382013B5044605F05CFB00230122217BCDE99C
S21401383000324900B0FBF1F1024A034821F005FCD1
S21401384002B010BD15380100C40E0020F7B50826D9
S2140138500E4C054604F580531E67407B05F03CFD83
S21401386004230B4F02220DF106013846ADF806304F
S21401387020F07EF8384620F08CF8A87B05F02CFD69
S214013880002004F50054266703B0F0BD00C00350C5
S2140138903031002070B50646124821F056F8B1685E
S2140138A00022114800F074F80023042203210220AC
S2140138B001F0C2FD002335460C4C04221946184679
S2140138C001F0BAFD0FCD0FC401222B6830462360EC
S2140138D0074B1A70FFF7A4FF3046FFF7B7FF00202B
S2140138E070BD00BF48FE030030310020B00E00203E
S2140138F0682E00202DE9F341144608221D46144B7C
S21401390006461A67407B0F4605F0E6FCDFF8448062
S2140139102544A54203D8002002B0BDE8F081230269
S21401392043F0010302220DF106014046ADF80630D0
S21401393020F01EF832883946D208404620F018F8A2
S214013940404620F026F83388013407EBD307E0E73A
S21401395000D0035030310020034B04481B78002B65
S21401396008BF0020704700BF682E0020B00E002060
S21401397030B5064D87B001AC0FCD0FC42B6801A83A
S2140139802360FFF787FF07B030BD00BF74FB03005D
S2140139902DE9F04F04462D4E89B001AD894690467B
S2140139A00FCE0FC596E80700D4F800B0284B85E87F
S2140139B007009B4545D003F580439B4543D0254DE5
S2140139C0AB450CBF02254FF0FF35DFF890A022482B
S2140139D00AEB4517D7F8AC6520F0B7FF606820F012
S2140139E0B4FF617B207B0023042201F025FD042225
S2140139F0617A207A002301F01FFD0123584601A9B0
S214013A008DF81230CDF80C90ADF8148020F01CF92A
S214013A100020627A237A2E3543EA02430AEB451ADE
S214013A20CAF80430627B237B06F0040643EA0243AD
S214013A3046F01806C7F8C035C7F8AC6509B0BDE84A
S214013A40F08F0025C1E70125BFE700BF88FB030013
S214013A50008005500000065048FE030000C00350D9
S214013A60184B37B583422AD1174B1B783BB3C8B2E4
S214013A700FF088FD054610B3144C1549206821F057
S214013A8033F81449206821F02FF81FF08EFF1FF03D
S214013A908DFF114B114A009311498523206821F0AF
S214013AA023F810492B46104A206821F01DF82846B5
S214013AB000F014F90D49206821F016F8FEE703B06E
S214013AC030BD00BFE40E0020692E00201C0F002030
S214013AD005F1030028F0030016FC0300A4FB030015
S214013AE036F0030045F0030042F003005AF00300ED
S214013AF030B500250368584A23F47F4323F00703B3
S214013B0085B0934204460295ADF80C507ED002F57E
S214013B10802293420ED0A2F18272934240F09A80A4
S214013B204E4B1B78002B00F0958005B0BDE8304069
S214013B3021F043BBB0F805301B2B40F08B80FF23F0
S214013B4004A91A4611E903001FF028FF012814BF33
S214013B5041F2FC15414B05F0FC0208BF18701B2111
S214013B6020790FF037FD054610B33D4C3D492068DE
S214013B7020F0BAFF3C49206820F0B6FF1FF015FF81
S214013B801FF014FF394B3A4A00933A4959232068EB
S214013B9020F0AAFF38492B46384A206820F0A4FFB7
S214013BA0284600F09BF83649206820F09DFFFEE786
S214013BB0344900902379344A0968344800F0EAF819
S214013BC00546002846D0264C2649206820F08CFF62
S214013BD02549206820F088FF1FF0E7FE1FF0E6FE6B
S214013BE0224B234A009323496223206820F07CFF5E
S214013BF021492B46214A206820F076FF284600F00E
S214013C006DF81F49206820F06FFFFEE7B0F8053019
S214013C10B7EE047A07EE903AF8EE677AB0F8073016
S214013C2067EE877A013307EE103AB8EEC77A67EE89
S214013C30877AB1EE047A67EE877AFAFE677AFCEE47
S214013C40E77A17EE903AB3F57A7F38BF4FF47A7376
S214013C500C4A136005B030BDA0000602692E002094
S214013C601C0F002005F1030028F0030025FC0300CB
S214013C70A4FB030036F0030045F0030042F0030006
S214013C805AF0030040310020613A0100E40E0020A2
S214013C90012208B5074B1A700022074B1A7004223E
S214013CA0064B1A701F22064B1A7003F035FC054BA3
S214013CB0186008BD513300206A2E002050330020C2
S214013CC04F3300201C0F0020024B0349186820F0D8
S214013CD00BBF00BF1C0F002045FC030070B50C4C49
S214013CE00C490646206820F0FFFE03F015FC054649
S214013CF0206803F005FC3046FFF7E6FF284603F090
S214013D00FFFB20680449BDE8704020F0EDBE00BF0F
S214013D101C0F002047FC030049FC030038B505468C
S214013D201FF0C2FE00230B4A14685CB1AC4206D1F8
S214013D30A96A6BB199621FF0BDFE012007E0234618
S214013D40A46AF2E7002DF3D01FF0B4FE204638BD7A
S214013D501160F0E7200F002010B50446B0B105F061
S214013D6011F82046FFF7DAFF10B194F82C300BB9A2
S214013D70002010BD064C2368002BF9D01FF094FEDE
S214013D802368013B23601FF095FEF1E72220F0E750
S214013D90240F00202DE9F04385B00546914698464C
S214013DA00E469DF8307009B9002F5CD12846FFF702
S214013DB0D3FF0446002836D185F82C00686305F049
S214013DC0EFF8864233D905F08BF82146844640F257
S214013DD0E7304FF47A720023E6FB0C011DF08EFEED
S214013DE04FF0FF3200231DF089FE2B46E886114670
S214013DF02846CDE900441D4A21F067F9044690B9EA
S214013E00C5E9089885F82D702E631FF04DFE184AF7
S214013E10136833B31A469B6A002BFBD195620023C5
S214013E20AB621FF047FE204605B0BDE8F08347B100
S214013E302B4631462846CDE900440C4A05F074F875
S214013E40DCE7304603A905F051F804460028EAD11C
S214013E502B462846CDE90077044A039921F011F94B
S214013E60CCE71560DBE72124DDE700BF753E0100E6
S214013E70200F002091F82C3013B50C4683B98B8E99
S214013E80CA8E93420ED243B9CDE9003320460B4683
S214013E90124A4FF0FF3121F0D8F8A38E0133A386E2
S214013EA002B010BD52B191F82D3093B101230093A9
S214013EB0D1E908232046096BFFF76CFF012384F83C
S214013EC02C30074B1A6801321EBF1A6801321A607D
S214013ED0E6E7084604F056FFF0E700BF753E01002E
S214013EE0240F00202DE9F041154E336833B34FF00F
S214013EF00008144F1FF0D8FD05463C6824B9284633
S214013F00BDE8F0411FF0D6BD94F82C30A3B133685C
S214013F1084F82C8013B13368013B336094F82D305C
S214013F2013B92046FFF7FAFE28461FF0C3FDD4E971
S214013F30083120469847DDE7A46ADFE7BDE8F0814F
S214013F40240F0020200F0020034B1B68002B14BFFA
S214013F5004200120704700BF240F0020024B186880
S214013F60B0FA80F040097047240F002008B50348D6
S214013F7020F0EBFCBDE808401FF0A5BA48FE0300A0
S214013F80014820F0E2BC00BF48FE030007B5082048
S214013F901FF09AFD02238DF80030054B6846019309
S214013FA01FF01BFD082003B05DF804EB1FF097BD62
S214013FB0006A18100348044A0449121A92101FF0A6
S214013FC058BD00BF34210100D4220100602F00201B
S214013FD008B500F02FF8FFF7EDFF124B12498B42A0
S214013FE012D30020114B12498B4218D3FEF7E4FA84
S214013FF0186850F82240586840F822400132986804
S2140140008242F5D30C33EAE70022F8E71C6844F84D
S214014010220001325C68A242F8D30833E4E70022AA
S214014020F8E700BF342C0400402C0400402C0400A8
S214014030402C0400124B134A70B59A60D3F88820BE
S214014040114D42F47002C3F888206FF0010205F5A5
S2140140500054226641F2FF7262660222C3F8D02043
S214014060BFF34F8FBFF36F8F4FF44036032003F03B
S21401407025FA0320E66003F013FA2E6170BD00BF37
S21401408000ED00E00020010000800044014B1868AC
S214014090704700BF48310020014B1860704700BFD1
S2140140A048310020084B1B6F03F00703022B04D096
S2140140B0032B05D0012B05D0FEE7044B186870478B
S2140140C0034BFBE70348704700800050483100204F
S2140140D050310020002D310108B5FFF7E3FF054BF5
S2140140E01B6FC3F301330133B0FBF3F0024B1860CF
S2140140F008BD00BF008000504431002000487047D2
S21401410000B4C404014B1868704700BF503100204A
S214014110054B1860054B1B6F03F00703032B01D1FA
S214014120FFF7DABF704700BF503100200080005013
S21401413000487047002D3101174B9868C0F30440C2
S2140141400C280AD8DFE800F00B090909090907213C
S21401415019091B1D1F0011487047002070479B68F6
S21401416003F04073B3F1807F11D0B3F1007F10D01C
S2140141700B4A002B08BF104670470A4870470A488A
S21401418070470A4870470A4870470A4870470A4805
S21401419070470A48704700BF0040015A405DC6009C
S2140141A000093D00C0EA210180BA8C010048E801FF
S2140141B0005A62020024F40080841E0040420F0070
S2140141C0014B1868704700BF4C31002000239B6AE2
S2140141D0B3F5903F03D21968064A914203D00023F3
S2140141E0037083607047012202709A689B6942607F
S2140141F0F7E700BF07B0CD5E00239B6A10B5B3F5A5
S214014200903F11D219680A4A91420DD1094C227881
S21401421012F0FD0F01D0002010BDDB699847002881
S214014220FAD101232370F6E74FF48170F4E700BF5B
S21401423007B0CD5E6B2E00204FF00053014A1A6086
S21401424003F00AB902020FF0034B5868C0F30800E6
S214014250003818BF0120704700ED00E013B50024B8
S2140142602948019420F071FB0123042203212046F2
S21401427001F0E2F820461FF0C0FC0122234B052086
S214014280C3F8442401A920F056FB002839D1204B5D
S214014290D3F8F02042F00102C3F8F020D3F8FC2056
S2140142A042F08072C3F8FC201A4AA3F55D431A60F7
S2140142B0019B194A03F5D52303F2FC43B3FBF2F342
S2140142C0164A013B13610223C2F8F0304FF48073A3
S2140142D0C2F804334FF06043114AC3F8B02F114AB5
S2140142E0C3F8802ED3F8002E42F48072C3F8002E55
S2140142F0FF2283F82020D3F8002E22F48072C3F820
S214014300002E02B010BD00BF48FE030000D00350CF
S21401431000ED00E0FF030040F8590D00000004E046
S21401432055CEACC5090001004FF06043D3F8802E8E
S21401433030B5D20715D501240B4D8440D5F8FC20A5
S21401434042F08072C5F8FC20D3F8002E2243C3F851
S214014350002E53F82020002AF0D003F82010002069
S21401436030BD1120FCE700BF00ED00E02DE9F04F65
S2140143709A46564B85B01B7806460F461546DDF81D
S2140143803C909DF844B0DDF85080002B00F09780FB
S214014390072A00F296800E9B002B00F09280B9F15E
S2140143A0000F00F08E80129BB3F5006F00F389803A
S2140143B0012803D1109B002B00F08380444B03EBB4
S2140143C005131B7B002B7ED0424C10220021684631
S2140143D029F05EFE04EB45141022A7BB39462046A1
S2140143E029F056FE43F210036380BBF1000F03D1A0
S2140143F0E37843F00303E370364A0E9B02EB451C59
S214014400CCE90193129B6901581E9DF84C30C0F30C
S2140144100A0003F003039B0643EA001E53582E4886
S214014420012E00EA03004EEA0003CDF800A0535027
S21401443017D0B8F1000F2ED19CF8023068F30413A0
S2140144408CF8023027E00021204629F021FE4FF4A7
S21401445044736380BBF1000FCED1E37843F03003A1
S214014460C9E713230CF1100ECCF80C309CE80F00B2
S2140144708EE80F006FF00301DCF81C20109B61F33F
S2140144809F02012FCCF81C20CCF8143003D1CCF8B5
S2140144901890CCF8043000270D4A290102EB0513C9
S2140144A042F80180159A28465A60694622469F605E
S2140144B05E7301F045F8384605B0BDE8F08F074851
S2140144C0FAE70748F8E70748F6E700BF6C2E002032
S2140144D028100020280F00200F80FFF3028000F034
S2140144E0018000F0078000F038B5124B05461B78B6
S2140144F0DBB1E0B11FF0D8FA0F4A00231146147B56
S21401450054B92B6001251A0101EB03131D738C505E
S2140145101FF0D0FA204638BD0133082B02F11002F5
S214014520EDD11FF0C7FA0548F5E70548F3E705485A
S214014530F1E700BF6C2E002028100020048000F058
S214014540028000F0018000F038B51FF0ADFA0023BC
S21401455005460B4A147B6CB90133082B02F1100295
S214014560F8D100F0A9FF074B28461C701FF0A2FAED
S214014570204603E028461FF09DFA034838BD00BFD9
S214014580281000206C2E0020058000F00D4B10B581
S2140145901B78044693B1072812D81FF085FA0A4BF8
S2140145A003EB04131A7B2AB100241C731FF082FA52
S2140145B0204610BD1FF07EFA0448FAE70448F8E7E3
S2140145C00448F6E76C2E002028100020068000F034
S2140145D0028000F0018000F0154B13B51868002327
S2140145E001908DF804301FF05FFA124B1C7824B14D
S2140145F01FF060FA104802B010BD01221A701FF0B9
S21401460059FA0E4B01A81C731C7783F82C4083F8CB
S2140146103C4083F84C4083F85C4083F86C4083F858
S2140146207C4008238DF8073000F062FF2046E2E761
S2140146309CFC03006C2E0020038000F02810002054
S2140146400A4A08B512785AB107280BD8084A02EB6D
S21401465000131B7B43B1002100F03CFF002008BD86
S2140146600448FCE70448FAE70448F8E76C2E002003
S21401467028100020028000F0018000F0078000F082
S2140146800A4A08B512785AB107280BD8084A02EB2D
S21401469000131B7B43B1012100F01CFF002008BD65
S2140146A00448FCE70448FAE70448F8E76C2E0020C3
S2140146B028100020028000F0018000F0078000F042
S2140146C00A4A08B5127852B107280AD8084A02EBF6
S2140146D000131B7B3BB100F07FFF002008BD05489F
S2140146E0FCE70548FAE70548F8E700BF6C2E00200E
S2140146F028100020028000F0018000F0078000F002
S2140147000D4B1B7893B1072812D889B10B4B03EBDD
S21401471000131B7B73B10A4B1A6D012383401342AE
S21401472014BF0123002300200B7070470548704713
S21401473005487047054870476C2E00202810002059
S21401474000000450028000F0018000F0078000F0B5
S2140147500B4A10B512780C4662B107280CD859B12D
S214014760084A02EB00131B7B43B100F047FF2070A1
S214014770002010BD0448FCE70448FAE70448F8E7BF
S2140147806C2E002028100020028000F0018000F02E
S214014790078000F0184B2DE9F0411F6D5B6D1F403F
S2140147A000D5FEE701260025144CDFF85880374275
S2140147B018D02368C8F85060A3B1A1682846013113
S2140147C06268A1609847637B012B0BD150B90C4BF3
S2140147D003EB45131A7B60F341021A731A7F60F3E9
S2140147E041021A770135082D4FEA460604F11004F6
S2140147F0DDD1BDE8F08100BF000004502810002084
S214014800280F002000200450024B1968024B18683C
S21401481015F022BD543100207431002070B594008B
S214014820224605460E462AF0F7FB431C0AD058B925
S21401483022463146284629F001FC0028034808BFD5
S214014840002070BD0248FCE70248FAE710E000F0DD
S21401485021E000F024E000F010B504462AF0E0FB69
S214014860431C10D088B900F08BFF234620F00300CC
S2140148702044984201D1002010BD53F8042B013288
S214014880F7D00348F8E70348F6E70348F4E700BF24
S2140148900EE000F021E000F024E000F008B51FF083
S2140148A0FCF8014B186008BD98170020014B1868EA
S2140148B01FF0F7B89817002041F67133124A30B549
S2140148C0D469124DD3639368A84204F4803423F468
S2140148D0401306D893600E4AD2F8183223F002032A
S2140148E00AE043F4801393600A4B9842F3D9084ACE
S2140148F0D2F8183243F00203C2F8183214B100227B
S214014900014BDA6330BD00BF00000350005A62025B
S21401491000C0075080F0FA022E4B98424AD022D8A7
S2140149202D4B984240D014D82C4B984239D00AD8F7
S2140149302B4B984232D02B4B98422FD02A4B984281
S2140149402CD000207047294B9842FAD1284B186F7B
S2140149507047284B98422AD0274B9842F1D1244BD6
S214014960D3F880007047254B98422BD009D8244BAA
S214014970984223D0234B9842E3D11D4BD3F88C00A9
S2140149807047214B984221D003F5740303F5105369
S2140149909842D6D1164BD3F898007047144B986DB1
S2140149A07047134B586E7047114B586F7047104B3A
S2140149B0986F70470E4BD3F8840070470C4BD3F8B2
S2140149C0880070470A4BD3F890007047084BD3F81D
S2140149D0940070470048E8010024F400C0CF6A0044
S2140149E080841E0000093D0040420F00405DC60065
S2140149F00080E00FC0EA210180BA8C01007E5603D8
S214014A0080D54302006CDC020090D00338B5134B0E
S214014A100546D3F820010C4600F0070004281AD8F2
S214014A20DFE800F003090D111500012305B1286028
S214014A3004B1236038BDFFF729FB0423F6E7FFF72F
S214014A4061FB0323F2E7FFF777FB0523EEE7FFF7AA
S214014A506FFB0223EAE700231846E7E700800050D1
S214014A6037B50C460021114B0191D3F8803105462C
S214014A7003F00303022B0ED0032B11D0012B03D11D
S214014A8001A8FFF7C3FF0D210DB1019B2B6004B1F7
S214014A90216003B030BDFFF74FFB05210190F3E71E
S214014AA0FFF746FB02210190EEE700BF00800050B1
S214014AB038B5104B0546D3F840310C4603F00303D6
S214014AC0022B0BD0032B0DD0012B0FD11EF0DFFFD5
S214014AD0082305B1286004B1236038BDFFF770FBD9
S214014AE00723F6E71EF0D6FF0923F2E7012300208D
S214014AF0EFE700BF0080005038B5104B0546D3F8ED
S214014B0060310C4603F00303022B0BD0032B0DD0B0
S214014B10012B0FD11EF0BBFF082305B1286004B19D
S214014B20236038BDFFF74CFB0723F6E71EF0B2FF04
S214014B300923F2E701230020EFE700BF00800050C1
S214014B4038B5144B0546D3F800020C4600F00700B2
S214014B5004281BD8DFE800F003090D111500012316
S214014B6005B1286004B1236038BD1EF090FF08230C
S214014B70F6E7FFF725FB0723F2E71EF08BFF092375
S214014B80EEE7FFF7A9FA0C23800AE9E700231846A7
S214014B90E6E700BF0080005038B5144B0546D3F851
S214014BA008020C4600F0070004281BD8DFE800F0D6
S214014BB003090D111500012305B1286004B1236016
S214014BC038BD1EF064FF0823F6E7FFF7F9FA07235E
S214014BD0F2E71EF05FFF0923EEE7FFF77DFA0C23ED
S214014BE0800AE9E700231846E6E700BF0080005088
S214014BF038B5104B0546D3F840320C4603F0030394
S214014C00022B0BD0032B0DD0012B0FD11EF03FFF33
S214014C10082305B1286004B1236038BDFFF7D0FA38
S214014C200723F6E71EF036FF0923F2E700231846AE
S214014C30EFE700BF0080005038B5104B0546D3F8AB
S214014C4000310C4603F00303022B0BD0032B0DD0CF
S214014C50012B0FD1FFF756FA032305B1286004B1E3
S214014C60236038BDFFF7ACFA0723F6E71EF00DFF09
S214014C700623F2E701230020EFE700BF0080005083
S214014C8038B50C4605461EF008FF054B9A6A544097
S214014C902C4054409C62BDE838401EF002BF00BF65
S214014CA000C00050032814D005D8012805D00228DA
S214014CB009D0002005E00F28FBD1084B186FC0F380
S214014CC0013001307047054BD3F89000C0F3046003
S214014CD0F7E7024B186FC0F38020F2E70080005020
S214014CE01FB500230193252817D8DFE800F0131A13
S214014CF01D272C363B51565B60656A78161A40169E
S214014D0016561A272C27361A5127783B3B3B3B274A
S214014D1027275B60FFF7C6F90190019805B05DF89B
S214014D2004FBFFF7D9F9F7E7FFF7BCF902460220C3
S214014D30FFF7B8FFB2FBF0F20192EEE7FFF7CCF90E
S214014D4002460320F4E7FFF7C7F902460320FFF700
S214014D50A9FFB2FBF0F25208EEE7002101A8FFF727
S214014D607FFEDAE7002101A8FFF750FED5E70293A0
S214014D704FF0E0231B695B0705D5FFF7ADF90290FD
S214014D80029B0193C9E703A902A8FFF791FEF7E783
S214014D90002101A8FFF78CFEBFE7002101A8FFF75D
S214014DA0ABFEBAE7002101A8FFF7CAFEB5E700216E
S214014DB001A8FFF7F1FEB0E7002101A8FFF73CFFCD
S214014DC0ABE7094BD3F8803003F00303022BA8D0DE
S214014DD0032B01D000209FE7FFF7AEF99CE70021E7
S214014DE001A8FFF705FF98E70080005008B50120ED
S214014DF0FFF776FFBDE808400349884294BF0121CA
S214014E000221032000F002B880F0FA02032810B550
S214014E100C4627D004D8012804D0022817D010BD8C
S214014E200F28FCD11EF0B6FE1EF0BCFE124A013C55
S214014E30136F23F4405343EA04331367FFF74CF927
S214014E400021FFF739FDBDE81040FFF7CFBF0A4A42
S214014E504C1ED2F8903023F0F85343EA0463C2F8AC
S214014E609030DCE7044A4C1E136F23F4806343EA58
S214014E7084231367D3E700BF008000501FB50023CB
S214014E800193252821D8DFE800F013202020202ACE
S214014E902F454A4F54595E7120203420204A202045
S214014EA020202A204520712F2F2F2F2020204F54DD
S214014EB0314B1B6F03F00703013B032B05D8DFE8DB
S214014EC003F00C02080A04230193019805B05DF86B
S214014ED004FB0323F8E70623F6E70223F4E70020A2
S214014EE001A9FFF7BDFDF0E7002001A9FFF78EFD40
S214014EF0EBE702934FF0E0231B695B0705D5FFF74D
S214014F00EBF80B230393039BDEE703A902A8FFF745
S214014F10CFFDF8E7002001A9FFF7CAFDD5E700207D
S214014F2001A9FFF7E9FDD0E7002001A9FFF708FE78
S214014F30CBE7002001A9FFF72FFEC6E7002001A955
S214014F40FFF77AFEC1E70C4BD3F8803003F003037A
S214014F50022B03D0032B05D00023B5E7FFF7BCF8DF
S214014F600B23B1E7FFF7E8F80523ADE7002001A919
S214014F70FFF73EFEA9E700BF00800050024A536AD1
S214014F8023F001035362704700C0075008B5FFF7CE
S214014F9075FF07280ABF024B4FF6FF70188808BD39
S214014FA03C33002008B5FFF769FF03280ABF024B10
S214014FB04FF6FF70188808BD3A33002038B505460D
S214014FC0FFF7AAFC204B04465A68012A04D11F4960
S214014FD04A609A699207FCD10020FFF74FFF042828
S214014FE003D11EF0D7FD1EF0DDFD194A24F04073F3
S214014FF095421FD0174A95421FD0174AD16811F023
S214015000060FFBD19068936091684B4013F4F81F2C
S21401501016D12846FFF740F80020FFF72FFF042897
S21401502010D1FFF759F80021FFF746FCBDE83840DC
S214015030FFF7DCBE43F00073DFE743F08073DCE785
S2140150409060E9E738BD00BF00C0015000E00150A4
S21401505040420F0080841E0000000150F8B504464F
S2140150600020FFF70BFF032800F0818045F60E03B2
S21401507002213F4AC2F880303E4B9962012103F576
S21401508080539962936DD903FCD4D4E900131B05B0
S21401509043EA0163E17B94F820500B43217BE77ED2
S2140150A043EA0143617B6D0143EA0133A17B43EA95
S2140150B0811313619169D4E904031B0643EA8063F3
S2140150C001F000410B43A17E94F823000B43217E9F
S2140150D043EA0143617E43EA01239361136AE66969
S2140150E023F00D0394F8221043EA870366BB13628C
S2140150F0966A94F8213045EA031326F033052B43CC
S21401510043F0010393621C4D194A936D35EA03037C
S214015110FBD10225174B9D62936D5B00FCD413698E
S214015120A56823F4700343EA055313614FF0004268
S214015130104B9A6119B9022203F580539A6278B925
S21401514001220E4B9A620BE0334343F008031362CD
S214015150936A23F0330303432B4343EA41039362E9
S21401516094F824301BB1024B054AC3F88020F8BDE1
S21401517000C0005000D000500300014000E0005085
S214015180F1A7FFFF70B5184CFF28A66A2AD8A36DB1
S21401519013F4803F18BF0122144B18BF9A620222F3
S2140151A09A62A56D15F08045FBD1114AA36992F963
S2140151B0002023F47F03024423F47F4382F3080292
S2140151C043EA002343EA0243A36131460220FFF784
S2140151D057FDA36DDB0303D531460120FFF750FDD4
S2140151E0284670BD2125FBE700C0005000D00050C6
S2140151F06D2E0020014B93F9000070476D2E0020A4
S21401520001231248124A816A9362836D03F00303F5
S214015210032BFAD1022393620C4A936D5800FCD4F7
S2140152200C48936D30EA0303FBD10122084B1A6543
S214015230A3F580539A6D9207FCD49A6D9007FCD51E
S2140152409A6D9207FCD50320FFF71ABD00C00050E7
S21401525000D0005003000100F0B5D0E901434FF43F
S214015260D1560227164A417805785662154E4F29BF
S21401527077604FF0010728BF4F2106F5805677600B
S2140152801669F603FCD441EA052151611B01417BF5
S21401529043EA04230B43017B43EA41039360C37B48
S2140152A0817B1B0143EA4113417C0B43017C43EAAA
S2140152B041035360837C13B16FF4D1535362F0BD45
S2140152C00000025000100250014B1880704700BFCA
S2140152D03C330020014B1880704700BF3A33002052
S2140152E0284B984242D01AD8A3F5B703A3F55863C2
S2140152F0984237D00CD8244B984225D0234B98425D
S2140153002AD0234B984217D00023224A9360704735
S214015310214B9842F8D1214BD3F8BC301FE0204BEB
S214015320984227D01F4B984228D01F4B9842EBD16A
S2140153301A4BD3F8C83012E0184BD3F8A03023F03C
S214015340407343F00073E0E7144BD3F8A03023F02A
S214015350407343F08073D8E7104BD3F8A03023F0A6
S2140153604073D2E70D4BD3F8B830F8E70B4BD3F8C0
S214015370C030F4E7094BD3F8CC30F0E7074BD3F84D
S214015380D030ECE7C0EA210180841E0000093D0010
S21401539040420F000040015A0024F4000080E00F54
S2140153A00048E801005A620280BA8C010C4A10B526
S2140153B01369044643F00403136103F0C7FA1EF0B1
S2140153C009FC084B084AC3F8202430BF1EF003FC32
S2140153D003F0DEFA1CB9BDE81040FEF77DBE10BD35
S2140153E000ED00E000E003500000FFFF0A4A10B5A0
S2140153F01369044643F004031361084B084AC3F8D3
S214015400202403F0A3FA30BF03F0C2FA1CB9BDE8AA
S2140154101040FEF761BE10BD00ED00E000E0035055
S2140154200000FFFF034A0179D36E23F030030B43DC
S214015430D366704700400050F8B504460D461F4637
S21401544016464AB101238B403021184A01FB00223F
S214015450F7B141F21001535004EB4403072D4FF00E
S2140154600F014FEA031316D8A80006FA00F281408E
S2140154700F4818441EF0B2FB4EB9012330210B4AE7
S214015480AB4001FB042277B141F210015350F8BD45
S21401549042F21001DFE7A5F10800800006FA00F2EB
S2140154A081400448E5E742F21001EFE700C00350EF
S2140154B004C003500CC0035008B5152001F0DEFFF0
S2140154C00022FF21024B5A6599625A6008BD00BF4F
S2140154D000000450044A054B002908BF1346012268
S2140154E082401A60704700BF4010045040200450AC
S2140154F010B50446417802780120104B1206586018
S2140155009A60A278152042EA01429A61FF229A62C5
S21401551000229A631A644FF000425A654FF0FF3238
S21401552003F500531A6501F0C9FF1520E17801F073
S214015530D3FFBDE81040152001F0B2BF00000450B3
S214015540F8B50125C3B2DFF88CC0D1F800E09D4064
S2140155508F7ACB7A0C46097BCCF850500CF5005C60
S2140155604CF820E04FF0300E184E1B050EFB006085
S21401557094F80DC043EA074343EA415322F003027D
S214015580C0F860C0C36502671EF08EFA104B5D65F9
S214015590237A13B1336C2B433364637A13B1B36B41
S2140155A02B43B3632279A37943EA0243094A936101
S2140155B06179E37943EA014305498B61034B5563FE
S2140155C09D64BDE8F8401EF075BA00BF00000450A7
S2140155D0001004500020045010B50124C0B28440CD
S2140155E01EF062FA044B5A6D22EA04025A659C6266
S2140155F0BDE810401EF05EBA0000045010B501244C
S214015600C0B284401EF050FA074BDA6A224208D133
S2140156105B6B9C430CBF012400241EF04BFA204612
S21401562010BD0024F9E700BF0000045041F67132B6
S214015630034BDA63012203F50053DA60704700BFBB
S2140156400000035041F671320121044BDA6303F581
S2140156500052D1600022DA63704700BF0000035099
S214015660CB784A7810B55B010C7843EA82030A7955
S214015670234343EA02130C22424302F1B04213636E
S214015680012C02BF8A78024B43F8202010BD00BFD0
S214015690D080035008B54FF0B0435A686AB958B184
S2140156A05B680BB11EF0AAFA01210D4B59601EF082
S2140156B0A5FA4FF0B043D96008BD5B680BB11EF088
S2140156C09DFA0028F0D11EF099FA4FF0B04302225D
S2140156D0DA601EF093FA0122024B5A60ECE700BF33
S2140156E000100058002000584FF0B0414B6810B52C
S2140156F00BB11EF083FA01220B4BC4785A608378F3
S214015700934043EA840344782343047943EA041329
S214015710447943EAC4038B60044B5A600378C3F1AF
S2140157200203CB6010BD00BF0020005800100058D7
S214015730054B5B69C3F38512827003F03F021B0BB6
S21401574042700370704700BF00C0075040F6B73282
S214015750064B5B689BB293429FBF4FF47A72B3FBD2
S214015760F2F3034AD05C88BF002070470080E00F48
S214015770C1FC0300014B986CD96C70470080E00FA8
S2140157800120034B9B680A3303F01F0398407047C0
S2140157900080E00F0D4B984208D1A3F50033C3F803
S2140157A08411C36D43F08003C3657047084B98426C
S2140157B004D1A3F51033C3F89411F2E7054B9842D0
S2140157C004BFA3F52033C3F8A411EAE7008005500F
S2140157D000C005500000065070B5054616461C462A
S2140157E019B90320FFF77CFA0146402C1BD003D8D9
S2140157F0DCB1202C1BD070BD602CFCD1042303FB34
S21401580006F2530803EB4113B3FBF2F3094A203BBC
S21401581002EAC303AA6822F06002AA60AA681443D7
S214015820AC60EB61E7E70623E9E71023E7E7082327
S214015830E5E700BFF8FF7F00012200F580535A60BC
S21401584040F6AA6341F20502436100230D498360D5
S214015850C365C26000F500520361C361C36491640D
S21401586009498365884203D103650023436506E041
S21401587006498842F8D001F580418842F4D00123D8
S21401588053607047FFFF01000080055000C00550BF
S21401589070B50D46FFF7D0FF012300F58056736003
S2140158A0AB7C04461BB1836843F080438360EB7C8A
S2140158B01BB12046297DFFF76DFF2A8A6B7B2046A8
S2140158C01343EA891343E3602B7BD5E90112FFF703
S2140158D083FF6B7D1BB1A36843F48033A360AB7D6C
S2140158E01BB1A36843F40043A360EB7D2A7E1B072C
S2140158F0120502F4E00203F0E0431343A365697E58
S2140159001F4A8B1E012B1F4B1DD8944217D002F540
S2140159108042944215D002F5804294420CBF022286
S2140159204FF0FF3203EB4213022041F2AC5203293F
S214015930985020D10423F3652B78636170BD002253
S214015940F0E70122EEE7944211D00F4A944210D0BC
S21401595002F5804294420CBF02224FF0FF3203EB65
S2140159604213022042F2AC5201299850E1E700228C
S214015970F5E70122F3E7042204F50053DA65DBE7D5
S2140159800080055000C0035000C0055038B50446DD
S214015990054D27F09AFE0FCC0FC594E80F0085E859
S2140159A00F00002038BD00BF9C17002047F6FF738C
S2140159B09A42F0B572D0022972D83A4B5B5C022B40
S2140159C06ED8394DDF0005EBC304A17815F83330E6
S2140159D0012938BF0121012B13D10025E078401A97
S2140159E0A84202D80844C0B2F0BD431B6668A0EBCB
S2140159F0530336F913609642D4BF1D4603F1FF30B8
S214015A00EEE760680028EFD0B0F90040944204DB6E
S214015A10B0F902409442B8BF144683883D44FF2B38
S214015A2019BFC8224FF0280CB0F90620B0F908C0FB
S214015A30A2EB04030CBF0126002693FBFCF33344C0
S214015A406E781BB29E4201DD002B01DA731E1BB27B
S214015A504FF47A7C01339BB2071D5D1E2DB24FEACF
S214015A60C50E00EBC505EA88AD689E4214FB0252DE
S214015A7022EAE27202F15C02B2FBFCF204DD37F8C4
S214015A80335001339542E8D200EB0E0398889042DA
S214015A9028BF1046884238BF0846A4E7FF20A3E780
S214015AA00020A1E7C4FC03009C1700200229F0B5E2
S214015AB060D8314B595C02295CD8304B13F8310061
S214015AC0012816D103EBC1039C78D878012C214616
S214015AD038BF0121904294BFC1EB0001C1EB020126
S214015AE0001BCAB28242C8BF00225B6833F91200AB
S214015AF0F0BD002A3CD003EBC1035968002939D018
S214015B009878904202D3B1F90200F1E7DC78B1F956
S214015B1000009442ECD95C788B88013CA3F1FF0627
S214015B20734201F10405E4B2734101F10C07DEB2E0
S214015B30B44216D805EBC3034FF47A756A43B3F93A
S214015B4002405B68D21A04EBD47302EB630292FB49
S214015B50F4F29042CCDBB1F902009042C8DC10B2FC
S214015B60C6E737F833C05E1C9445E3D33346DEE719
S214015B700348BDE70348BBE7C4FC03009C170020AD
S214015B800CFEFFFF0080FFFF08B50448FFF7FEFE8E
S214015B90BDE80840012027F09CBD00BFC8FC0300FB
S214015BA0004870473E3300207FB50222084B094962
S214015BB0CDE901234FF00073CDE90313052301A9B5
S214015BC04FF0FF30059327F0B4FD07B05DF804FBF6
S214015BD0006A1800000204002DE9F0418CB08846E6
S214015BE0DDE912761D460446002847D0002945D037
S214015BF0002F43D0002E41D013F00F033ED1204892
S214015C002049A360002A08BF0146E361C4E90013E6
S214015C10404609A91EF072F968BB204609991EF094
S214015C20B1FA294620461EF0ADFA694640461EF0F6
S214015C3013FA00BB694620461EF090FA404603A9B7
S214015C401EF015FAB8B9204603A91EF087FA069782
S214015C500127204645F0005506A9079708951EF02E
S214015C607DFA204609A909960A970B951EF080FA37
S214015C7020461EF071F80CB0BDE8F0812120FAE74D
S214015C8000010004000101042DE9F0418CB08846B2
S214015C9016461D460446129F00284BD0002949D0BF
S214015CA0002A47D0002F45D00B68103B102B41D857
S214015CB0214A22FA03F3D9073CD500231F4A836001
S214015CC0C0E90023C36109A940461EF017F970BB5D
S214015CD0204609991EF056FA294620461EF052FA29
S214015CE0694640461EF0B8F908BB694620461EF0D4
S214015CF035FA404603A91EF0BAF9C0B9204603A9F1
S214015D001EF02CFA06960126204606A945F00055F7
S214015D10079608951EF022FA094B204609A909970D
S214015D200A960B931EF024FA20461EF015F80CB0C6
S214015D30BDE8F0812120FAE701010100000004041A
S214015D4010000020F0B50C4617461E46054695B0D5
S214015D50002874D0002972D0002A70D0002B6ED093
S214015D60036B0F2B5BD80023364A3846C4E9002361
S214015D70A360E36111A91EF0C1F800285BD120469B
S214015D8011991EF0FFF9296B20460F2984BF01F0F7
S214015D900F0110311EF0F6F9384602A91EF05CF923
S214015DA0002848D1204602A91EF0D8F9384605A990
S214015DB01EF05DF900283ED1204605A91EF0CEF959
S214015DC00122214B089509920A932B6B05F11000CD
S214015DD003F00F0141F000510B900F2B0C920D9127
S214015DE00E900F9243F00052109226D90A9B08A9F2
S214015DF023F0005320460A931EF0B0F90BA9204663
S214015E001EF0ACF90123119612930F4B204611A9EF
S214015E1013931EF0ADF920461DF09EFF0BE000F136
S214015E202003019000930122102339462046FFF7F4
S214015E30D3FE002897D015B0F0BD0EA9DFE72120CC
S214015E40F9E700BF00000404100000202DE9F04F20
S214015E509BB00C4690461F460546DDF890900028FC
S214015E6000F0B280002900F0AF80002A00F0AC807C
S214015E70002B00F0A980026B02EB09031B09B3EBB0
S214015E80121F02F00F0600F0978000234F4A8B6026
S214015E90C1E90023CB61404617A91EF02FF803463F
S214015EA0002840F0858006EB090B204617992BF059
S214015EB00F0A1EF067F9514620461EF063F9404668
S214015EC002A91EF0C9F80346002871D1204602A98E
S214015ED01EF044F9404605A91EF0C9F803460028FD
S214015EE066D14FF00108019005A920461EF036F94B
S214015EF0374A204608A90895CDF824800A921EF054
S214015F002DF946F00051AAEB060605F1100346F0FE
S214015F1000560B93CDF830800D910E97CDF83C804E
S214015F2010960D99204621F000510D910BA9009372
S214015F301EF014F920460EA91EF010F9019B244A02
S214015F401193AAF1100343F00053CDF84880139340
S214015F5005F120031493CDF854801692139B204626
S214015F6043F080431393139B11A923F0005313931B
S214015F701EF0FEF8204614A91EF0FAF8144A17A9D6
S214015F8020461795CDF8608019921EF0F1F820464C
S214015F901DF0E2FEAAEB0B0149440190ABEB0A02AD
S214015FA00098394428F092F8019B2A6B4A442A63E8
S214015FB018461BB0BDE8F08F10304A4639463044CB
S214015FC028F084F80023F0E72123F1E70302000418
S214015FD0100000202DE9FF474FF000080E46174637
S214015FE00446CDF80080002859D022B9002528465D
S214015FF004B0BDE8F087002951D032F0030902F061
S214016000030A1FD04FF0E063C0E900380123019175
S214016010C0F808800293C0F81C8049F0005301A91B
S21401602003931EF0A5F8494620461EF0ABF820461D
S2140160301DF092FE054628B14A464146304628F0F4
S21401604027F8D4E7BAF1000FD0D04FF000084FF090
S214016050E063C4E900380123CDF804D00293114B64
S214016060204601A9C4F80880C4F81C8003931EF0DA
S2140160707FF8042120461EF085F820461DF06CFEB0
S214016080054608B13A46D8E7009A4E44EB0001357A
S21401609022FA03F3AA4506F8013BF7D1A6E7212524
S2140160A0A5E700BF04000020F0B50F4616461D46C2
S2140160B0044693B010B9212013B0F0BD0029FAD0E0
S2140160C0002AF8D0002BF6D0002331461A4638466F
S2140160D01DF0B9FE0028EFD1304602A91DF05EFE84
S2140160E00028E9D138683449029A88426B695ED142
S2140160F09342E0D32B68002BDDD14FF06062384627
S214016100C4E90023A360E36101A91DF0F7FE00289E
S214016110D2D10199204621F4F06101911EF032F8A6
S214016120694628461DF0EAFE0028C5D1204600999A
S2140161301EF028F8384609A91DF08EFF0028BBD1AD
S214016140204609A91EF00AF838460CA91DF08FFF53
S2140161500028B1D120460CA91EF000F8EB684BB11F
S214016160284606A91DF078FF0028A5D1204606A9D5
S2140161701DF0F4FF304603A91DF079FF00289BD1DE
S214016180204603A91DF0EAFF28460FA91DF06FFF60
S214016190002891D120460FA91DF0EAFF03252046CD
S2140161A01DF0DAFD012887D1013DF8D184E7B3EB74
S2140161B0420F9FD27FE700BF200000B070B50E46A9
S2140161C0154604468AB000285CD000295AD0002A19
S2140161D058D0012329461A4630461DF034FE0028C1
S2140161E04ED1B36813F4C04F4CD0AB6803F4C04330
S2140161F0B3F5005F46D1254BA060C4E90030E061ED
S21401620007A930461DF07AFE002839D120460799A5
S2140162101DF0B8FF012302934FF00053204601A959
S21401622003931DF09BFF304604A91DF020FF38BBE9
S214016230204604A91DF092FFEB681BBBAB6803F474
S214016240C043B3F5005F1DD1694628461DF0C9FD60
S214016250B0B9009B6A699A4216D32A6943F0005383
S21401626007920122204607A90892032509931DF0EB
S2140162707FFF20461DF070FD012801D1013DF8D1B8
S2140162800AB070BD2120FBE71D20F9E700000102DE
S2140162901FB5044698B191B100230A4A8360C0E94C
S2140162A00023C361012301910293074B01A90393C4
S2140162B01DF05EFF20461DF04FFD04B010BD2120ED
S2140162C0FBE700BF000008430400002006289ABF31
S2140162D0014B185C00207047B4FD030030B5154B28
S2140162E087B00293144B0390049346F611030D46B0
S2140162F0059300F077F91428044616D168461DF078
S214016300F7FF4FF0A843032202A95A6319601D61E3
S2140163109A63DA6B9207FCD1142C02D168461DF001
S214016320F5FF00F08FF9044601E00028E9D0204689
S21401633007B030BDBC170020040000202DE9F04F47
S214016340B1B005468C469E46E8466F4EDDF8EC90A9
S214016350409C06F1100A474630687168083603C744
S2140163605645B846F7D13E9B03EB0208C8F1000A32
S2140163700AF00F0AB9F1000F00F09D80C9F100077D
S21401638007F00F070121DDF8FCB044F00050C4F11E
S2140163901006CDF810B005910690300200F4F850C2
S2140163A040F021000790B9F1000F40F08680CDF84B
S2140163B020D047F00050002D00F084800991212163
S2140163C00A9041EA07210B9142F00050CDF830C007
S2140163D03D9B08A94FEA0A2C0D910E904CF0410006
S2140163E00F901093002A75D13E9B119143F00053F4
S2140163F012933C9B1390149310AB1593434B444A52
S214016400169340F611031793424B0021002D08BF47
S2140164101346189314AB19933F4B10221A9311236A
S2140164201B931CAB184627F033FE01221D92002257
S21401643046F0804603461E96239205B9EB46102C7D
S214016440CDF880B024AE4BD1012322460021304640
S2140164502193229427F01CFE20AB002125938F4226
S21401646018BF334647F0804226923A9A2CA82892C3
S2140164702993B2FA82F35B0949EA837310222B91BE
S2140164802A9327F005FEB9F1000F00D028AED044BC
S21401649048F080432CA918A82D962E93FFF71EFFCF
S2140164A030B92DB90346A34225D1002818BF2C20A8
S2140164B031B0BDE8F08F102764E7CDF820E049F051
S2140164C0005078E7002C3FF479AF04A90991012127
S2140164D00A9076E73E9B0CAA11924120129388E718
S2140164E01022002130462193229427F0D1FD002C62
S2140164F0B2D10123B1E703F1C0026A4412F8C02CFD
S21401650001331043CFE700BFBBFD0300100000209E
S214016510D0FD0300D4FD030004000020F0B5C0291F
S2140165209FB0DDE9244557D0B1F5807F04D080299E
S21401653048D029201FB0F0BD01265CB140F2344797
S2140165400294102403960494212401970594069539
S21401655002AC0AE040F21447029410240396049415
S21401656021240594012401970695079401251024FA
S214016570089409950A9221220B950C940D92174ABC
S2140165800AAD0E92164A0F95109242F6110211921A
S214016590129313951494159201AA1692D3B112ABC5
S2140165A01793042318931123199316AB1A901B9370
S2140165B040F61103C9081C911AA806A91D93FFF7F6
S2140165C08DFEB7E7012614B94FF48267C4E74FF48E
S2140165D08667B5E70EABE3E70F20ABE7CCFD03001C
S2140165E010000010144A38B5D2F8803243F0010387
S2140165F0C2F88032114B5B68C3F3080343B14FF016
S214016600A842D36B13F0430FFBD11424204638BDA8
S2140166104FF0A843DC6B14F04304FBD1084D2B6804
S2140166201BB90421284603F095F82B68013343F083
S21401663000432B60EAE700BF0080005000ED00E059
S214016640BC170020014B00205B68704700ED00E09E
S214016650012300F01F02A0F506200949A0F55060AD
S2140166604009934051F820201A4341F8202005495B
S21401667051F8202022EA030241F82020704700BF8B
S214016680D4170020C01700200121A0F506230E4ACA
S214016690A3F550635B0900F01F00814052F8230008
S2140166A0014342F823100949D1E9003003448868C0
S2140166B00344C868096903445B1802BFC2E9003392
S2140166C0C2E9023313617047C0170020D4170020B7
S2140166D02DE9F04FA9B003921D4604460822339EC9
S2140166E0CDE90401414021FA02F34B40980702F13B
S2140166F0080218BF9B00202A1C44F4D18123B4FB56
S214016700F3F303EBC313E41A734B04F506241B7867
S21401671004F55064002B3ED1FEF776F8074620B10B
S2140167206FF0910029B0BDE8F08F0146402208A81D
S21401673027F0AEFC4022394618A827F0A9FCDFF85E
S214016740B481DFF8B491C3460BF10F0ACDF800A06F
S214016750102208A95B46D9F8000026F067FD002242
S214016760014608F1100808AF914246D1CDF800A0C5
S2140167705B461022D9F8000018A926F060FD4FF0FC
S214016780000A834618AFD34541D1544B9845DAD118
S2140167900122514B1A704FF0810A4FF00008DFF8C2
S2140167A05CB1A4F50627A7F550635B095BF82320C7
S2140167B004F01F01CA40D2073DD4494A52F823309B
S2140167C0CB40DB072AD5B8F1000F08BFA0468123CE
S2140167D0A7F6FF47B7FBF3F303EBC313FF1A07F55F
S2140167E00624BAF1010A04F55064DAD1039BBBB161
S2140167F0B8F1000F14D0444619E057F8040BCDE960
S2140168000612FFF725FF079A06990132ACE757F8FB
S214016810040BFFF739FF0AF1010AB4E7039B13B92A
S2140168206FF08B007EE7B8F1000F18BF4446349B2B
S21401683000201C6076E7329B13B10023329A136066
S2140168400EB1002333601023DFF8AC9000932A4684
S21401685000232146D9F8000013F070FE60BB329980
S2140168602A68204BC9B99A4206D02146D9F80000B9
S21401687013F0FCFE0028D3D1D5E90223DDE904108C
S214016880834208BF8A42A2D1039B002BCFD06B68FC
S214016890012BCCD16FF0840044E7102032999A4244
S2140168A00860E2D1002EE7D033462146D9F8000031
S2140168B018AA13F097FE48B10B4B9842D5D00B4B54
S2140168C09842D2D00A4B9842D6D029E7329A3368FA
S2140168D012689B1A3360CFE76E2E00200071080005
S2140168E0C0170020105D175EFFDF00F011E000F01A
S2140168F0FEDF00F0006D080074310020D417002080
S2140169002DE9F04F87B08246894698461646DDF84F
S21401691040B02AB1002B4FD040F26C739A424ED849
S214016920BBF1010F4ED8002406F1100739460120AD
S21401693005941EF025FB0546002846D021463A461A
S21401694027F0A6FB05ABCDE9014300942B460122B7
S21401695050464946FFF7BCFE044680B110F18C0F45
S21401696008BF6FF08D043A460021284627F090FBB9
S21401697028461EF0E7FA204607B0BDE8F08F144B14
S214016980C5E902A92B60C5F804B02EB132464146CE
S21401699005F1100027F09AFB059E0E483B462A4655
S2140169A03146006813F032FD18B93046FFF750FE45
S2140169B0D9E76FF09104D6E76FF08604DBE76FF056
S2140169C09104D8E76FF08504D5E76FF08C04D2E721
S2140169D0105D175E743100202DE9F0438DB08146BD
S2140169E0DDE914780E4615461C469BB1B8F1000F3A
S2140169F005D16FF0860630460DB0BDE8F083002F56
S214016A00F7D0B7F1005FF4D3C3F1005303F5C033F9
S214016A109F42EED81022002108A827F039FB002259
S214016A2007AB029305AB019306AB3146009348468C
S214016A3008ABCDE90522FFF74BFE06460028DAD162
S214016A40059BA4B1AB4215D853EA0504D1D1069BE8
S214016A500B48C8F8004000943A46079900682B4452
S214016A6013F06CFD002818BF6FF09106C3E7AB4228
S214016A70EDD2BEE75B1B9C4228BF1C46E7E700BF82
S214016A807431002030B58DB00C4605461022002129
S214016A9008A827F0FDFA002207AB029305AB019385
S214016AA006AB21460093284608ABCDE90522FFF741
S214016AB00FFE0446D8B9099B012B1BD0079D104B2E
S214016AC02946186813F0D2FDB8B90122A5F50623A8
S214016AD00C49A3F550635B0905F01F00824051F88D
S214016AE023004240284641F82320FFF7CDFD2046EB
S214016AF00DB030BD6FF08404F9E76FF09104F6E74E
S214016B0074310020D41700202DE9F04F93B00446CD
S214016B10DDE91E75DDE920689346DDE91C028A463B
S214016B20DDF8889029B96FF08604204613B0BDE8D9
S214016B30F08FBBF1000FF6D00FB9002DF3D108B9D5
S214016B40002AF0D116B9B8F1000FECD1B9F1000F57
S214016B50E9D02C4A934251D12388B3F5105F4DD129
S214016B602022002102A827F093FA202200210AA859
S214016B7027F08EFA02A81DF002F910B16FF0920408
S214016B80D3E720465A4651460AAB1DF021FC04467F
S214016B900028CAD10A981DF00FFC04460028C4D16B
S214016BA015B9C9F80050C0E7B74224D27B199E42F6
S214016BB021D24545B7D839462A46304627F04EFAFF
S214016BC0374615F00F0AAED1CDE900762B46524670
S214016BD00AA902A8FFF700F807460028E1D04246B6
S214016BE05146304627F054FA012FC9F800A0C5D106
S214016BF06FF08B0499E74545E3D994E76FF0850478
S214016C0093E700BF004440042DE9F04FB3B00C46B3
S214016C1005460021164602A8202298463C9FDDF82C
S214016C20009127F035FA202200210AA827F030FA31
S214016C302022002112A827F02BFA202200211AA8D0
S214016C4027F026FA00213C2223A8229127F020FAD9
S214016C5034B12EB127B13E9B13B1B9F1000F05D166
S214016C606FF08604204633B0BDE8F08FB4F800B06C
S214016C70B4F802A00BF4E043B3F5804FF0D0384BE4
S214016C80384A2B4043F01063934202D06FF08504DC
S214016C90E8E70AF10703B8EBD30F4FEAD305DFD3D2
S214016CA03F9B9D4258D81AA81DF069F810B16FF0A5
S214016CB09204D7E7002301A91AA80193FFF7E8FA7F
S214016CC00028F4D1019B284A23F07F439342019385
S214016CD0DCD947F212139B45D8D1BAF5807FD5D1BE
S214016CE0224B01370A933D9B0D90023323F0030399
S214016CF00F93402317936B000E971590139320461E
S214016D004246314622AF02AB16971DF061FB0446A0
S214016D100028A7D10C9B129043F400531AA80C9399
S214016D201DF02DF80028C2D112AB0AAA02A91AA892
S214016D30FFF7BAF9064610B1482891D1A6E72A46C8
S214016D4039463E9827F0C2F93346BB550136402EE8
S214016D50FBD1C9F8005085E76FF0890482E700BFD0
S214016D600000FFF600000209010201002000008079
S214016D70F8B5134642880C460732072A4FEAD20175
S214016D8001D0A1424DD146680588C7682022184621
S214016D90002127F07DF9360A0346002E44D1002C47
S214016DA03FD041F20102954205D0B5F5885F02D089
S214016DB0B5F5905F02D15C60002011E0B5F5105F7B
S214016DC007D1182C03D0202C01D0102C29D11C60FF
S214016DD0F1E705F44F42B2F5824F02D06FF085001D
S214016DE0F8BDEAB2122AF9D1202CF7D1104A25F0C3
S214016DF0FF05B5F5E24F02600CD0B5F5824F10D114
S214016E004FF4005217F4705F09D017F4864F04D080
S214016E109A60E3E74FF48042F4E742F480629A60B6
S214016E20CAE76FF08600DBE76FF08B00D8E700BF9C
S214016E30200000802DE9F04F9A460388144603F49B
S214016E404F42B3B0B2F5824F0F46DDF8F89002D04C
S214016E506FF0850056E011B96FF0860052E0002C05
S214016E60FAD0B9F1000FF7D0DAB2122AF0D123F036
S214016E70FF03B3F5E24F34D14388C9F800305BBB5A
S214016E80E300C9F80030B3F5807FE1D1002318464E
S214016E9055493D19214411F8016D15F8012D10438E
S214016EA0921B0CBF4FF0FF360026AF4203EA0603E3
S214016EB043EA0203EFD10028CED0002BCCDA3C9B6C
S214016EC09C4200F28E8022463946504627F0FEF854
S214016ED03D9B00201C6015E0DA1DB4EBD20FD2D02A
S214016EE0BAE7B3F5824F79D10B78042BB4D12022BF
S214016EF0002101A827F0CCF801A81CF040FF20B122
S214016F006FF0920033B0BDE8F08F0090694601A89B
S214016F10FFF7BEF90028F3D1009B344A23F07F43E4
S214016F20934295D94FF000083E22414622A8CDF85B
S214016F30848027F0ADF801234FF0420B2022414612
S214016F4009A88DF88430651E27F0A2F87B1C202244
S214016F50414611A80D9321AE0E9527F099F82022EF
S214016F60414619A81596CDF858B027F091F8EA00D1
S214016F705208B2F5807FCDE91D6BC9F800200BD011
S214016F8003D8E02A3FF464AF66E7B2F5C07F3FF46A
S214016F905FAFB2F5047FF5E7154B09AA0993119384
S214016FA04FF400530B934FF480431393402311A9DE
S214016FB01A9301A819ABFFF777F8D9F80030073311
S214016FC0DB085A0033B1531E013B86F8008006F1F8
S214016FD00106F9D200283FF472AF3DE76FF0960044
S214016FE090E76FF089008DE7D8FD030001020100EC
S214016FF0200000802DE9F04F8FB0DDF860808146DB
S2140170000C4692469B461A9FB8F1000F05D16FF0C9
S214017010860420460FB0BDE8F08F002FF7D0002879
S214017020F5D02022002106A827F032F806A81CF089
S214017030A6FE10B16FF09204EBE714F47C1FC4F3C4
S21401704005452AD0102DE2D8199B9D4233D81D4BF9
S21401705024F47E149C4231D1002302AECDE90233E2
S214017060CDE9043352465B464946009606A8FEF72C
S2140170700BFE044698B92A463146404627F026F8C4
S214017080234633550134102CFBD100243D6006A85D
S2140170901CF07FFE0028BCD0CCE71025D4E72128C1
S2140170A006D0012814BF6FF092046FF08B04EEE750
S2140170B06FF08604EBE76FF08904AAE76FF08504AA
S2140170C0A7E700BF0002C00370B50E46144605468A
S2140170D010B96FF0860070BD0029FAD03822002161
S2140170E026F0D6FF094B24F47E129A420AD1338841
S2140170F0B3F5105F06D1C4F30543102BE9D8002081
S2140171002C60E8E76FF08500E5E700BF0002C003EA
S214017110F0B50F4616461D4604468BB088B302B935
S2140171207BBB2022002102A826F0B2FF02A81CF099
S21401713026FE20B16FF0920420460BB0F0BD236806
S214017140114A23F47E13934215D135B9002402A8BF
S2140171501CF01FFE0028EFD0ECE733463A460095B8
S21401716002A9201DFEF772FE012807D00028EDD0E7
S2140171706FF09204EBE76FF08804E8E76FF08B049A
S214017180E5E76FF08604D7E70002C0032DE9F0417A
S2140171908CB0884616461D460446129F002840D0ED
S2140171A0002A3ED0002B3CD0002F3AD0102B03688B
S2140171B028BF102513F47C1FC3F3054202D0954265
S2140171C028BF15461A4A23F47E1393422CD1202257
S2140171D0002104A826F05CFF002304A8CDE90033B3
S2140171E0CDE902331CF0CBFD40B96B46424604A9FB
S2140171F0201DFEF7A7FD30B100233B606FF0920023
S2140172000CB0BDE8F08104A81CF0C3FD04460028BC
S214017210F2D12A466946304626F058FF20463D60A0
S214017220EEE76FF08600EBE76FF08800E8E700BF57
S2140172300002C0030023C36001F138030361202369
S2140172400A6843618B6D0B4922F47E128A424360C1
S21401725003D001F580718A4208D1102B01D0182B7A
S21401726002D1036000207047202BFAD06FF088000F
S214017270704700BF0001C00330B58BB06D46604C4F
S2140172800FCC0FC554F8043B68462B604FF07E6365
S21401729093F89C306D46FF2B08BF25238DF80130EF
S2140172A0FDF7DAFF3220FEF70FF80FCC0FC50FCC33
S2140172B00FC594E8030085E80300524BD3F84C2130
S2140172C0110340F18380A3F5FE431C884FF6FF733C
S2140172D09C4208BF81248DF81940FDF78BFF0444BA
S2140172E084F3080448488DF81840FCF711FF6846F7
S2140172F0FDF7B4FE3220FDF7EDFF444C4448FDF7A0
S2140173005DFE4448FDF7ECFF1CF050FC236F0020A7
S21401731023F0070343F002032367236F23F450533C
S21401732043F4806323671CF048FC3B4BD3F8FC20F6
S214017330D2014FD4D4F8803023F0030343F0020384
S214017340C4F88030314BD3F8202122F0070242F0F6
S2140173500102C3F82021D3F8802122F0030242F073
S2140173600102C3F88021D3F8402122F0030242F043
S2140173700202C3F84021D3F8602122F0030242F052
S2140173800202C3F86021D3F8402222F0030242F041
S2140173900202C3F84022D3F8002222F0070242F08C
S2140173A00202C3F80022D3F8082222F0070242F0B4
S2140173B00202C3F80822FDF7E1FD4FF0E0220020AB
S2140173C0136963F0040313610BB030BDD3F8504169
S2140173D0E4B280E7D3F8FC2022F08072C3F8FC20E8
S2140173E0D4F8802022F0030242F00202C4F8802082
S2140173F0D3F8FC2042F08072C3F8FC20A2E700BF5D
S214017400F8FD03000080E00F00F049020080005004
S21401741000B4C404C0EA210100ED00E06FF00403EB
S214017420502110B50A480B4C13F0800F03F10102EE
S21401743006D123443D2A83F800131346F4D110BD28
S21401744003F00F03043B034419761346ECE700BF31
S21401745000ED00E000E100E0BFF34F8F0549064B69
S214017460CA6802F4E0621343CB60BFF34F8F00BFDC
S214017470FDE700BF00ED00E00400FA0500280CDB84
S21401748001220649430900F01F008240203341F8DB
S2140174902320BFF34F8FBFF36F8F704700E100E0EB
S2140174A0002807DB01234109034A00F01F0083403F
S2140174B042F82130704700BF00E100E0002808DBF9
S2140174C001224309034900F01F008240603341F85E
S2140174D02320704700E100E00028ACBF00F16040C7
S2140174E0064B4FEA0111C9B2ABBF00F5614000F08F
S2140174F00F0080F800131954704700BF14ED00E028
S21401750010B504461CF0C9FA024B1C601CF0C9FAFF
S214017510002010BDE817002010B51CF0BEFA034B82
S2140175201C681CF0BEFA204610BD00BFE8170020FC
S214017530034B022218680023806819461AF024BDFE
S2140175407C32002030B51446054687B010461DF043
S21401755015FB6369024683423CBFD4E903315B18DD
S2140175601B1A7BB10F49049403910021CDE9013127
S214017570012300932846D4E900131CF0BCFA00202E
S21401758007B030BD0122627694F82D20002AF6D08D
S21401759084F835301321E369204698472046636A0C
S2140175A09847ECE7457501002DE9F04788B0044699
S2140175B00F46164698461CF077FA8146002E7AD07A
S2140175C0237E03F0FF02002B00F0A28020461DF070
S2140175D0D5FA6569A84205D1637ED4E9033213441E
S2140175E05D1B01E0F9D9451BB54228BF35461CF0A5
S2140175F05BFA94F82D308246002B6DD12A46384628
S214017600616926F063FD63692E462B44636121E0C0
S214017610037803F0FD0111295BD1216B814205D16D
S214017620A3F111014B424B4184F83430013E6369AA
S214017630216B01328B4203F1010308BF23636361AF
S21401764095426069E4D1D4E90323216B134499423E
S21401765000D122630025D4E90323616913449942CA
S21401766008BF6261207A6576FCF7EAFF20461DF0C6
S21401767085FA6369834232D1257694F82D30E56820
S214017680656103B125632046636A9847214B0494DC
S21401769003930023029323692A460193012300934F
S2140176A063682168207A1CF026FA207AFCF7E8FF46
S2140176B050461CF0FFF94846C8F800601CF0FAF97D
S2140176C0D8F80030002B0CBF1B20002008B0BDE806
S2140176D0F08707F8013BAAE72E460022B0E7012310
S2140176E0207A23760DF11E01FDF732F89DF81E3043
S2140176F0002BDAD00DF11F01207AFDF701F89DF875
S2140177001F100029D1D12246207AFFF71BFFCCE7B4
S2140177101646D0E7457501002DE9F0410C461546A1
S214017720064686B04022002120461F4626F0B0FCC1
S21401773095E8030000232A692376EB6884E80300B2
S214017740C4E904232A7DE36084F82C20AA7D236300
S214017750012384F8343084F835300C9B84F82D20CE
S21401776023620D9BE76163620E9BA3622B7A84F80A
S21401777036306B7A84F837302D4B346073602D4B7E
S214017780B3602D4B33612D4B73612D4BF360FCF7CA
S21401779023FF38B12B4B984204D01024204606B064
S2140177A0BDE8F081002104F10800FCF79DFE0746C4
S2140177B00028F2D14FF00108234B3362234B84F8A3
S2140177C03C80B361224BF3619DF8403084F8390068
S2140177D084F83B309DF83C30204684F83A30697D89
S2140177E084F838801DF007FA95F90900FFF766FE60
S2140177F095F90900FFF754FE164B0494CDE9027380
S2140178002369CDE900836368E2682168207A1CF069
S21401781072F904460028C0D195F90800FFF74EFE1C
S21401782095F90800FFF73CFE3046FFF769FEB5E71D
S214017830474C0300A97501006B4B0300714B030015
S2140178409D4B0300038000F0454B0300F74B0300FC
S214017850774B0300457501002DE9F0414FF0010813
S2140178601C46574B86B00293564B0C9D0193564BC4
S214017870174600930A46CDE903882946534BFFF77E
S2140178804BFF0646002840F09280236804222B64B2
S214017890237985F84430A17985F84610607985F812
S2140178A04500237A85F84830E37985F84730A37A8E
S2140178B085F84A30637A85F84930237B85F84C3061
S2140178C0E37A85F84B304346FDF7B6FD4346022280
